{
  "_format": "hh-sol-artifact-1",
  "contractName": "CardMarketplace",
  "sourceName": "contracts/CardMarketplace.sol",
  "abi": [
    {
      "inputs": [
        {
          "internalType": "address",
          "name": "tokenAddress",
          "type": "address"
        }
      ],
      "stateMutability": "nonpayable",
      "type": "constructor"
    },
    {
      "inputs": [
        {
          "internalType": "uint256",
          "name": "cardId",
          "type": "uint256"
        }
      ],
      "name": "buyCard",
      "outputs": [],
      "stateMutability": "nonpayable",
      "type": "function"
    },
    {
      "inputs": [
        {
          "internalType": "uint256",
          "name": "",
          "type": "uint256"
        }
      ],
      "name": "cards",
      "outputs": [
        {
          "internalType": "string",
          "name": "name",
          "type": "string"
        },
        {
          "internalType": "string",
          "name": "rarity",
          "type": "string"
        },
        {
          "internalType": "uint256",
          "name": "price",
          "type": "uint256"
        },
        {
          "internalType": "address",
          "name": "owner",
          "type": "address"
        }
      ],
      "stateMutability": "view",
      "type": "function"
    },
    {
      "inputs": [
        {
          "internalType": "uint256",
          "name": "cardId",
          "type": "uint256"
        }
      ],
      "name": "deleteCard",
      "outputs": [],
      "stateMutability": "nonpayable",
      "type": "function"
    },
    {
      "inputs": [
        {
          "internalType": "uint256",
          "name": "cardId",
          "type": "uint256"
        }
      ],
      "name": "getCard",
      "outputs": [
        {
          "internalType": "string",
          "name": "",
          "type": "string"
        },
        {
          "internalType": "string",
          "name": "",
          "type": "string"
        },
        {
          "internalType": "uint256",
          "name": "",
          "type": "uint256"
        },
        {
          "internalType": "address",
          "name": "",
          "type": "address"
        }
      ],
      "stateMutability": "view",
      "type": "function"
    },
    {
      "inputs": [
        {
          "internalType": "string",
          "name": "_name",
          "type": "string"
        },
        {
          "internalType": "string",
          "name": "_rarity",
          "type": "string"
        },
        {
          "internalType": "uint256",
          "name": "_price",
          "type": "uint256"
        }
      ],
      "name": "mintCard",
      "outputs": [],
      "stateMutability": "nonpayable",
      "type": "function"
    },
    {
      "inputs": [],
      "name": "nextCardId",
      "outputs": [
        {
          "internalType": "uint256",
          "name": "",
          "type": "uint256"
        }
      ],
      "stateMutability": "view",
      "type": "function"
    },
    {
      "inputs": [],
      "name": "token",
      "outputs": [
        {
          "internalType": "contract CardToken",
          "name": "",
          "type": "address"
        }
      ],
      "stateMutability": "view",
      "type": "function"
    }
  ],
  "bytecode": "0x60806040523480156200001157600080fd5b50604051620013b7380380620013b78339818101604052810190620000379190620000e9565b80600260006101000a81548173ffffffffffffffffffffffffffffffffffffffff021916908373ffffffffffffffffffffffffffffffffffffffff160217905550506200011b565b600080fd5b600073ffffffffffffffffffffffffffffffffffffffff82169050919050565b6000620000b18262000084565b9050919050565b620000c381620000a4565b8114620000cf57600080fd5b50565b600081519050620000e381620000b8565b92915050565b6000602082840312156200010257620001016200007f565b5b60006200011284828501620000d2565b91505092915050565b61128c806200012b6000396000f3fe608060405234801561001057600080fd5b506004361061007d5760003560e01c80639188d3121161005b5780639188d312146100ed578063c5263e8c14610120578063c70f5eaa1461013e578063fc0c546a1461015a5761007d565b80635e1acf65146100825780638d7798671461009e5780638dc10768146100ba575b600080fd5b61009c60048036038101906100979190610976565b610178565b005b6100b860048036038101906100b39190610ae9565b610326565b005b6100d460048036038101906100cf9190610976565b61040e565b6040516100e49493929190610c43565b60405180910390f35b61010760048036038101906101029190610976565b61056e565b6040516101179493929190610c43565b60405180910390f35b61012861073d565b6040516101359190610c96565b60405180910390f35b61015860048036038101906101539190610976565b610743565b005b6101626108a9565b60405161016f9190610d10565b60405180910390f35b600073ffffffffffffffffffffffffffffffffffffffff1660008083815260200190815260200160002060030160009054906101000a900473ffffffffffffffffffffffffffffffffffffffff1673ffffffffffffffffffffffffffffffffffffffff160361021c576040517f08c379a000000000000000000000000000000000000000000000000000000000815260040161021390610d77565b60405180910390fd5b3373ffffffffffffffffffffffffffffffffffffffff1660008083815260200190815260200160002060030160009054906101000a900473ffffffffffffffffffffffffffffffffffffffff1673ffffffffffffffffffffffffffffffffffffffff16146102bf576040517f08c379a00000000000000000000000000000000000000000000000000000000081526004016102b690610de3565b60405180910390fd5b600080828152602001908152602001600020600080820160006102e291906108cf565b6001820160006102f291906108cf565b60028201600090556003820160006101000a81549073ffffffffffffffffffffffffffffffffffffffff0219169055505050565b60405180608001604052808481526020018381526020018281526020013373ffffffffffffffffffffffffffffffffffffffff16815250600080600154815260200190815260200160002060008201518160000190816103869190611005565b50602082015181600101908161039c9190611005565b506040820151816002015560608201518160030160006101000a81548173ffffffffffffffffffffffffffffffffffffffff021916908373ffffffffffffffffffffffffffffffffffffffff1602179055509050506001600081548092919061040490611106565b9190505550505050565b600060205280600052604060002060009150905080600001805461043190610e32565b80601f016020809104026020016040519081016040528092919081815260200182805461045d90610e32565b80156104aa5780601f1061047f576101008083540402835291602001916104aa565b820191906000526020600020905b81548152906001019060200180831161048d57829003601f168201915b5050505050908060010180546104bf90610e32565b80601f01602080910402602001604051908101604052809291908181526020018280546104eb90610e32565b80156105385780601f1061050d57610100808354040283529160200191610538565b820191906000526020600020905b81548152906001019060200180831161051b57829003601f168201915b5050505050908060020154908060030160009054906101000a900473ffffffffffffffffffffffffffffffffffffffff16905084565b60608060008060008060008781526020019081526020016000206040518060800160405290816000820180546105a390610e32565b80601f01602080910402602001604051908101604052809291908181526020018280546105cf90610e32565b801561061c5780601f106105f15761010080835404028352916020019161061c565b820191906000526020600020905b8154815290600101906020018083116105ff57829003601f168201915b5050505050815260200160018201805461063590610e32565b80601f016020809104026020016040519081016040528092919081815260200182805461066190610e32565b80156106ae5780601f10610683576101008083540402835291602001916106ae565b820191906000526020600020905b81548152906001019060200180831161069157829003601f168201915b50505050508152602001600282015481526020016003820160009054906101000a900473ffffffffffffffffffffffffffffffffffffffff1673ffffffffffffffffffffffffffffffffffffffff1673ffffffffffffffffffffffffffffffffffffffff1681525050905080600001518160200151826040015183606001519450945094509450509193509193565b60015481565b60008060008381526020019081526020016000209050600260009054906101000a900473ffffffffffffffffffffffffffffffffffffffff1673ffffffffffffffffffffffffffffffffffffffff166323b872dd338360030160009054906101000a900473ffffffffffffffffffffffffffffffffffffffff1684600201546040518463ffffffff1660e01b81526004016107e09392919061114e565b6020604051808303816000875af11580156107ff573d6000803e3d6000fd5b505050506040513d601f19601f8201168201806040525081019061082391906111bd565b610862576040517f08c379a000000000000000000000000000000000000000000000000000000000815260040161085990611236565b60405180910390fd5b338160030160006101000a81548173ffffffffffffffffffffffffffffffffffffffff021916908373ffffffffffffffffffffffffffffffffffffffff1602179055505050565b600260009054906101000a900473ffffffffffffffffffffffffffffffffffffffff1681565b5080546108db90610e32565b6000825580601f106108ed575061090c565b601f01602090049060005260206000209081019061090b919061090f565b5b50565b5b80821115610928576000816000905550600101610910565b5090565b6000604051905090565b600080fd5b600080fd5b6000819050919050565b61095381610940565b811461095e57600080fd5b50565b6000813590506109708161094a565b92915050565b60006020828403121561098c5761098b610936565b5b600061099a84828501610961565b91505092915050565b600080fd5b600080fd5b6000601f19601f8301169050919050565b7f4e487b7100000000000000000000000000000000000000000000000000000000600052604160045260246000fd5b6109f6826109ad565b810181811067ffffffffffffffff82111715610a1557610a146109be565b5b80604052505050565b6000610a2861092c565b9050610a3482826109ed565b919050565b600067ffffffffffffffff821115610a5457610a536109be565b5b610a5d826109ad565b9050602081019050919050565b82818337600083830152505050565b6000610a8c610a8784610a39565b610a1e565b905082815260208101848484011115610aa857610aa76109a8565b5b610ab3848285610a6a565b509392505050565b600082601f830112610ad057610acf6109a3565b5b8135610ae0848260208601610a79565b91505092915050565b600080600060608486031215610b0257610b01610936565b5b600084013567ffffffffffffffff811115610b2057610b1f61093b565b5b610b2c86828701610abb565b935050602084013567ffffffffffffffff811115610b4d57610b4c61093b565b5b610b5986828701610abb565b9250506040610b6a86828701610961565b9150509250925092565b600081519050919050565b600082825260208201905092915050565b60005b83811015610bae578082015181840152602081019050610b93565b60008484015250505050565b6000610bc582610b74565b610bcf8185610b7f565b9350610bdf818560208601610b90565b610be8816109ad565b840191505092915050565b610bfc81610940565b82525050565b600073ffffffffffffffffffffffffffffffffffffffff82169050919050565b6000610c2d82610c02565b9050919050565b610c3d81610c22565b82525050565b60006080820190508181036000830152610c5d8187610bba565b90508181036020830152610c718186610bba565b9050610c806040830185610bf3565b610c8d6060830184610c34565b95945050505050565b6000602082019050610cab6000830184610bf3565b92915050565b6000819050919050565b6000610cd6610cd1610ccc84610c02565b610cb1565b610c02565b9050919050565b6000610ce882610cbb565b9050919050565b6000610cfa82610cdd565b9050919050565b610d0a81610cef565b82525050565b6000602082019050610d256000830184610d01565b92915050565b7f4361726420646f6573206e6f7420657869737400000000000000000000000000600082015250565b6000610d61601383610b7f565b9150610d6c82610d2b565b602082019050919050565b60006020820190508181036000830152610d9081610d54565b9050919050565b7f4e6f7420746865206f776e6572206f6620746869732063617264000000000000600082015250565b6000610dcd601a83610b7f565b9150610dd882610d97565b602082019050919050565b60006020820190508181036000830152610dfc81610dc0565b9050919050565b7f4e487b7100000000000000000000000000000000000000000000000000000000600052602260045260246000fd5b60006002820490506001821680610e4a57607f821691505b602082108103610e5d57610e5c610e03565b5b50919050565b60008190508160005260206000209050919050565b60006020601f8301049050919050565b600082821b905092915050565b600060088302610ec57fffffffffffffffffffffffffffffffffffffffffffffffffffffffffffffffff82610e88565b610ecf8683610e88565b95508019841693508086168417925050509392505050565b6000610f02610efd610ef884610940565b610cb1565b610940565b9050919050565b6000819050919050565b610f1c83610ee7565b610f30610f2882610f09565b848454610e95565b825550505050565b600090565b610f45610f38565b610f50818484610f13565b505050565b5b81811015610f7457610f69600082610f3d565b600181019050610f56565b5050565b601f821115610fb957610f8a81610e63565b610f9384610e78565b81016020851015610fa2578190505b610fb6610fae85610e78565b830182610f55565b50505b505050565b600082821c905092915050565b6000610fdc60001984600802610fbe565b1980831691505092915050565b6000610ff58383610fcb565b9150826002028217905092915050565b61100e82610b74565b67ffffffffffffffff811115611027576110266109be565b5b6110318254610e32565b61103c828285610f78565b600060209050601f83116001811461106f576000841561105d578287015190505b6110678582610fe9565b8655506110cf565b601f19841661107d86610e63565b60005b828110156110a557848901518255600182019150602085019450602081019050611080565b868310156110c257848901516110be601f891682610fcb565b8355505b6001600288020188555050505b505050505050565b7f4e487b7100000000000000000000000000000000000000000000000000000000600052601160045260246000fd5b600061111182610940565b91507fffffffffffffffffffffffffffffffffffffffffffffffffffffffffffffffff8203611143576111426110d7565b5b600182019050919050565b60006060820190506111636000830186610c34565b6111706020830185610c34565b61117d6040830184610bf3565b949350505050565b60008115159050919050565b61119a81611185565b81146111a557600080fd5b50565b6000815190506111b781611191565b92915050565b6000602082840312156111d3576111d2610936565b5b60006111e1848285016111a8565b91505092915050565b7f5061796d656e74206661696c6564000000000000000000000000000000000000600082015250565b6000611220600e83610b7f565b915061122b826111ea565b602082019050919050565b6000602082019050818103600083015261124f81611213565b905091905056fea26469706673582212203287bce462cb4865c2de2b5a6cca0b2ea3fe154b0a3d9f5a7099bb035e5317ff64736f6c63430008140033",
  "linkReferences": {},
  "deployedLinkReferences": {}
}