{
  "_format": "hh-sol-artifact-1",
  "contractName": "CardMarketplace",
  "sourceName": "contracts/CardMarketplace.sol",
  "abi": [
    {
      "inputs": [
        {
          "internalType": "address",
          "name": "tokenAddress",
          "type": "address"
        }
      ],
      "stateMutability": "nonpayable",
      "type": "constructor"
    },
    {
      "inputs": [
        {
          "internalType": "uint256",
          "name": "cardId",
          "type": "uint256"
        }
      ],
      "name": "buyCard",
      "outputs": [],
      "stateMutability": "nonpayable",
      "type": "function"
    },
    {
      "inputs": [
        {
          "internalType": "uint256",
          "name": "",
          "type": "uint256"
        }
      ],
      "name": "cards",
      "outputs": [
        {
          "internalType": "string",
          "name": "name",
          "type": "string"
        },
        {
          "internalType": "string",
          "name": "rarity",
          "type": "string"
        },
        {
          "internalType": "uint256",
          "name": "price",
          "type": "uint256"
        },
        {
          "internalType": "address",
          "name": "owner",
          "type": "address"
        }
      ],
      "stateMutability": "view",
      "type": "function"
    },
    {
      "inputs": [
        {
          "internalType": "uint256",
          "name": "cardId",
          "type": "uint256"
        }
      ],
      "name": "getCard",
      "outputs": [
        {
          "internalType": "string",
          "name": "",
          "type": "string"
        },
        {
          "internalType": "string",
          "name": "",
          "type": "string"
        },
        {
          "internalType": "uint256",
          "name": "",
          "type": "uint256"
        },
        {
          "internalType": "address",
          "name": "",
          "type": "address"
        }
      ],
      "stateMutability": "view",
      "type": "function"
    },
    {
      "inputs": [
        {
          "internalType": "string",
          "name": "_name",
          "type": "string"
        },
        {
          "internalType": "string",
          "name": "_rarity",
          "type": "string"
        },
        {
          "internalType": "uint256",
          "name": "_price",
          "type": "uint256"
        }
      ],
      "name": "mintCard",
      "outputs": [],
      "stateMutability": "nonpayable",
      "type": "function"
    },
    {
      "inputs": [],
      "name": "nextCardId",
      "outputs": [
        {
          "internalType": "uint256",
          "name": "",
          "type": "uint256"
        }
      ],
      "stateMutability": "view",
      "type": "function"
    },
    {
      "inputs": [],
      "name": "token",
      "outputs": [
        {
          "internalType": "contract CardToken",
          "name": "",
          "type": "address"
        }
      ],
      "stateMutability": "view",
      "type": "function"
    }
  ],
  "bytecode": "0x60806040523480156200001157600080fd5b506040516200109d3803806200109d8339818101604052810190620000379190620000e9565b80600260006101000a81548173ffffffffffffffffffffffffffffffffffffffff021916908373ffffffffffffffffffffffffffffffffffffffff160217905550506200011b565b600080fd5b600073ffffffffffffffffffffffffffffffffffffffff82169050919050565b6000620000b18262000084565b9050919050565b620000c381620000a4565b8114620000cf57600080fd5b50565b600081519050620000e381620000b8565b92915050565b6000602082840312156200010257620001016200007f565b5b60006200011284828501620000d2565b91505092915050565b610f72806200012b6000396000f3fe608060405234801561001057600080fd5b50600436106100625760003560e01c80638d779867146100675780638dc10768146100835780639188d312146100b6578063c5263e8c146100e9578063c70f5eaa14610107578063fc0c546a14610123575b600080fd5b610081600480360381019061007c919061087a565b610141565b005b61009d60048036038101906100989190610905565b610229565b6040516100ad9493929190610a01565b60405180910390f35b6100d060048036038101906100cb9190610905565b610389565b6040516100e09493929190610a01565b60405180910390f35b6100f1610558565b6040516100fe9190610a54565b60405180910390f35b610121600480360381019061011c9190610905565b61055e565b005b61012b6106c4565b6040516101389190610ace565b60405180910390f35b60405180608001604052808481526020018381526020018281526020013373ffffffffffffffffffffffffffffffffffffffff16815250600080600154815260200190815260200160002060008201518160000190816101a19190610ceb565b5060208201518160010190816101b79190610ceb565b506040820151816002015560608201518160030160006101000a81548173ffffffffffffffffffffffffffffffffffffffff021916908373ffffffffffffffffffffffffffffffffffffffff1602179055509050506001600081548092919061021f90610dec565b9190505550505050565b600060205280600052604060002060009150905080600001805461024c90610b18565b80601f016020809104026020016040519081016040528092919081815260200182805461027890610b18565b80156102c55780601f1061029a576101008083540402835291602001916102c5565b820191906000526020600020905b8154815290600101906020018083116102a857829003601f168201915b5050505050908060010180546102da90610b18565b80601f016020809104026020016040519081016040528092919081815260200182805461030690610b18565b80156103535780601f1061032857610100808354040283529160200191610353565b820191906000526020600020905b81548152906001019060200180831161033657829003601f168201915b5050505050908060020154908060030160009054906101000a900473ffffffffffffffffffffffffffffffffffffffff16905084565b60608060008060008060008781526020019081526020016000206040518060800160405290816000820180546103be90610b18565b80601f01602080910402602001604051908101604052809291908181526020018280546103ea90610b18565b80156104375780601f1061040c57610100808354040283529160200191610437565b820191906000526020600020905b81548152906001019060200180831161041a57829003601f168201915b5050505050815260200160018201805461045090610b18565b80601f016020809104026020016040519081016040528092919081815260200182805461047c90610b18565b80156104c95780601f1061049e576101008083540402835291602001916104c9565b820191906000526020600020905b8154815290600101906020018083116104ac57829003601f168201915b50505050508152602001600282015481526020016003820160009054906101000a900473ffffffffffffffffffffffffffffffffffffffff1673ffffffffffffffffffffffffffffffffffffffff1673ffffffffffffffffffffffffffffffffffffffff1681525050905080600001518160200151826040015183606001519450945094509450509193509193565b60015481565b60008060008381526020019081526020016000209050600260009054906101000a900473ffffffffffffffffffffffffffffffffffffffff1673ffffffffffffffffffffffffffffffffffffffff166323b872dd338360030160009054906101000a900473ffffffffffffffffffffffffffffffffffffffff1684600201546040518463ffffffff1660e01b81526004016105fb93929190610e34565b6020604051808303816000875af115801561061a573d6000803e3d6000fd5b505050506040513d601f19601f8201168201806040525081019061063e9190610ea3565b61067d576040517f08c379a000000000000000000000000000000000000000000000000000000000815260040161067490610f1c565b60405180910390fd5b338160030160006101000a81548173ffffffffffffffffffffffffffffffffffffffff021916908373ffffffffffffffffffffffffffffffffffffffff1602179055505050565b600260009054906101000a900473ffffffffffffffffffffffffffffffffffffffff1681565b6000604051905090565b600080fd5b600080fd5b600080fd5b600080fd5b6000601f19601f8301169050919050565b7f4e487b7100000000000000000000000000000000000000000000000000000000600052604160045260246000fd5b61075182610708565b810181811067ffffffffffffffff821117156107705761076f610719565b5b80604052505050565b60006107836106ea565b905061078f8282610748565b919050565b600067ffffffffffffffff8211156107af576107ae610719565b5b6107b882610708565b9050602081019050919050565b82818337600083830152505050565b60006107e76107e284610794565b610779565b90508281526020810184848401111561080357610802610703565b5b61080e8482856107c5565b509392505050565b600082601f83011261082b5761082a6106fe565b5b813561083b8482602086016107d4565b91505092915050565b6000819050919050565b61085781610844565b811461086257600080fd5b50565b6000813590506108748161084e565b92915050565b600080600060608486031215610893576108926106f4565b5b600084013567ffffffffffffffff8111156108b1576108b06106f9565b5b6108bd86828701610816565b935050602084013567ffffffffffffffff8111156108de576108dd6106f9565b5b6108ea86828701610816565b92505060406108fb86828701610865565b9150509250925092565b60006020828403121561091b5761091a6106f4565b5b600061092984828501610865565b91505092915050565b600081519050919050565b600082825260208201905092915050565b60005b8381101561096c578082015181840152602081019050610951565b60008484015250505050565b600061098382610932565b61098d818561093d565b935061099d81856020860161094e565b6109a681610708565b840191505092915050565b6109ba81610844565b82525050565b600073ffffffffffffffffffffffffffffffffffffffff82169050919050565b60006109eb826109c0565b9050919050565b6109fb816109e0565b82525050565b60006080820190508181036000830152610a1b8187610978565b90508181036020830152610a2f8186610978565b9050610a3e60408301856109b1565b610a4b60608301846109f2565b95945050505050565b6000602082019050610a6960008301846109b1565b92915050565b6000819050919050565b6000610a94610a8f610a8a846109c0565b610a6f565b6109c0565b9050919050565b6000610aa682610a79565b9050919050565b6000610ab882610a9b565b9050919050565b610ac881610aad565b82525050565b6000602082019050610ae36000830184610abf565b92915050565b7f4e487b7100000000000000000000000000000000000000000000000000000000600052602260045260246000fd5b60006002820490506001821680610b3057607f821691505b602082108103610b4357610b42610ae9565b5b50919050565b60008190508160005260206000209050919050565b60006020601f8301049050919050565b600082821b905092915050565b600060088302610bab7fffffffffffffffffffffffffffffffffffffffffffffffffffffffffffffffff82610b6e565b610bb58683610b6e565b95508019841693508086168417925050509392505050565b6000610be8610be3610bde84610844565b610a6f565b610844565b9050919050565b6000819050919050565b610c0283610bcd565b610c16610c0e82610bef565b848454610b7b565b825550505050565b600090565b610c2b610c1e565b610c36818484610bf9565b505050565b5b81811015610c5a57610c4f600082610c23565b600181019050610c3c565b5050565b601f821115610c9f57610c7081610b49565b610c7984610b5e565b81016020851015610c88578190505b610c9c610c9485610b5e565b830182610c3b565b50505b505050565b600082821c905092915050565b6000610cc260001984600802610ca4565b1980831691505092915050565b6000610cdb8383610cb1565b9150826002028217905092915050565b610cf482610932565b67ffffffffffffffff811115610d0d57610d0c610719565b5b610d178254610b18565b610d22828285610c5e565b600060209050601f831160018114610d555760008415610d43578287015190505b610d4d8582610ccf565b865550610db5565b601f198416610d6386610b49565b60005b82811015610d8b57848901518255600182019150602085019450602081019050610d66565b86831015610da85784890151610da4601f891682610cb1565b8355505b6001600288020188555050505b505050505050565b7f4e487b7100000000000000000000000000000000000000000000000000000000600052601160045260246000fd5b6000610df782610844565b91507fffffffffffffffffffffffffffffffffffffffffffffffffffffffffffffffff8203610e2957610e28610dbd565b5b600182019050919050565b6000606082019050610e4960008301866109f2565b610e5660208301856109f2565b610e6360408301846109b1565b949350505050565b60008115159050919050565b610e8081610e6b565b8114610e8b57600080fd5b50565b600081519050610e9d81610e77565b92915050565b600060208284031215610eb957610eb86106f4565b5b6000610ec784828501610e8e565b91505092915050565b7f5061796d656e74206661696c6564000000000000000000000000000000000000600082015250565b6000610f06600e8361093d565b9150610f1182610ed0565b602082019050919050565b60006020820190508181036000830152610f3581610ef9565b905091905056fea264697066735822122017f3877b5a94b99ec681d1aa4f43aca5dc9482533bf1ef40ed62f2874e1dbd9c64736f6c63430008140033",
  "linkReferences": {},
  "deployedLinkReferences": {}
}